:020000041000EA
:10000000002008205D0100101B0100101D010010E0
:100010001101001011010010110100101101001058
:100020001901001019010010190100101F01001022
:10003000110100101901001021010010230100100E
:100040001101001011010010110100101101001028
:100050001101001011010010110100101101001018
:100060001101001011010010110100101101001008
:1000700011010010110100101101001011010010F8
:1000800011010010110100101101001011010010E8
:1000900011010010110100101101001011010010D8
:1000A00011010010110100101101001011010010C8
:1000B00011010010110100101101001011010010B8
:1000C00011010010110100101101001011010010A8
:1000D0001101001011010010110100101101001098
:1000E0001101001011010010110100101101001088
:1000F0001101001011010010110100101101001078
:100100001101001011010010110100101101001067
:10011000EFF30580103800BE00BE00BE00BE00BE7A
:1001200000BE00BEF2EB88711095001030950010F3
:10013000A001001090A31AE7D3DEFFFF42012110B7
:10014000FF01000058A90000793512AB4FF0000004
:100150001E49086006C881F3088810474FF05040D8
:10016000006810B14FF00000F2E70DA40ECC00299A
:1001700002D000F012F8F9E71549164A002000E015
:1001800001C19142FCD11449884714498847144958
:10019000884700BEFDE701C901C29A42FBD3704700
:1001A00030950010100100207016002090AA001059
:1001B000000008200000082090AA0010001008206D
:1001C00000100820000000007047000008ED00E06B
:1001D00070160020383000207D5F00100D200010C8
:1001E000755F0010F8B500BF10B5054C237833B922
:1001F000044B13B1044800E000BF0123237010BD7D
:10020000F8170020000000004490001008B5034BD0
:100210001BB10349034800E000BF08BD0000000017
:10022000FC170020449000104FF0A04101232C4AFD
:1002300070B41468D1F80C04A340184217D0294CAC
:10024000C1F80C342168284D81F001006B5C53BB70
:10025000BFF35F8F136801226A544021234A9B0138
:1002600003F1A04302EB002220605A60D9614FF0F5
:10027000A04101221E48D1F80C4403689A40144260
:100280000FD01C4CC1F80C242268002A10DD216814
:10029000194A0139216040219B0103F1A0431A60F2
:1002A000D96170BC7047154E336801333360CFE7B6
:1002B0001349144D0C682A5D62B1BFF35F8F0026AD
:1002C0002E5503680868104A80F0010002EB0422F2
:1002D0000860E0E70D48084A016801310160DAE78B
:1002E000901100201C1C0020201C0020141800204D
:1002F0009411002098110020281C0020141C0020BC
:10030000281D0020241C0020141A0020181C002086
:10031000F8B50322044600250223C4E9085518460F
:10032000C4E901322160A58384F8285084F8305054
:10033000257302F087FD606845EC440001212A46E0
:1003400002F066FDA06802F07DFDA06845EC440067
:100350004FF0504701262A46012102F059FDD4E909
:100360000123796806FA02F20A42796806FA03F371
:1003700014BF32462A460B4214BF33462B46042094
:1003800043EA42032061A573637302F05BFD2069B9
:1003900045EC44002A46314602F03AFD23697A686A
:1003A00006FA03F313420CBF33462B462B4F63F37D
:1003B0000705BA6A63F30F250620A261A58202F041
:1003C00041FD062346EC4430072002F03BFD0723A5
:1003D00046EC4430217F2368B86A84F828100BB1BA
:1003E0001B78734094F82A2084F830309AB1E56A7B
:1003F000461B002E2DDB05F59C358035E56294F813
:100400002950013AD2B285F0010584F82A2084F8F7
:10041000295002B12946062241EC402094F83220AE
:100420009AB1616B401A002894F831000CDB013A54
:1004300001F59C3180F00100D2B2803184F83100A6
:1004400084F83220616302B10346072243EC402066
:10045000F8BD94F829502946DDE700BF00000B40A5
:1004600090ED057AB5EEC07AF1EE10FA10B50446BB
:100470002DED068B00F12382F7EE007AB4EE677A59
:10048000F1EE10FA37FE877AD4ED067AF5EEC07AEF
:10049000F1EE10FA84ED057A00F10E829FEDEA7A12
:1004A000F4EE477AF1EE10FA77FE277A94ED077AA8
:1004B000B5EEC07AF1EE10FAC4ED067A00F1F981DA
:1004C000F7EE007AB4EE677AF1EE10FA37FE877A2B
:1004D000D4ED087AF6EE006AF4EEE67AF1EE10FA60
:1004E00084ED077A00F1E281B1EE087AF4EE477A02
:1004F000F1EE10FA77FE277A94ED097AF5EE006AAC
:10050000B4EEE67AF1EE10FAC4ED087A7BD4F0EEA0
:10051000007AB4EE677AF1EE10FA37FE877AD4EDFE
:100520000A7AF5EEC07AF1EE10FA84ED097A67D412
:10053000B7EE007AF4EE477AF1EE10FA77FE277AFA
:1005400094ED0B7AF4EEC77AF1EE10FAC4ED0A7A64
:1005500007DCF7EE007AB4EEE77AF1EE10FA77FEF8
:10056000877A94ED0C7ADFEDB96AB4EEE67AF1EEB3
:1005700010FAC4ED0B7A00F19681F2EE087AB4EE2F
:10058000677AF1EE10FA37FE877AD4ED0D7AF5EE40
:10059000C07AF1EE10FA84ED0C7A00F181819FEDC2
:1005A000AC7AF4EE477AF1EE10FA77FE277A94ED02
:1005B0000E7ADFEDA86AB4EEE67AF1EE10FAC4ED39
:1005C0000D7A00F16A81F6EE007AB4EE677AF1EE08
:1005D00010FA37FE877AD4ED1C7AF7EE006AF4EE53
:1005E000E67AF1EE10FA84ED0E7A0FD49FED9A7A46
:1005F000F4EEC77AF1EE10FA40F36481974806E012
:10060000DFED987A9CE7B0EE667A88E7944804F0CC
:100610008FF904F5C363D3ED004AF7EE008AD4EDF9
:10062000051A07EE900A04F21C6178EEE77AD1ED24
:10063000009A94ED062A71EEE41A04F5C46292ED74
:1006400000AA04F2246104F5C56291ED009A92EDCE
:10065000005A32EE698AD4ED072A94ED083AD4EDB7
:10066000093AE7EEA14A04F5C66292ED004A04F2A7
:100670002C6104F5C76291ED007A92ED006A04F2F4
:10068000346104F23C6232EECA0AD1ED005AD2ED76
:10069000006A73EE490A33EEC51AD4ED0A1A94EDD6
:1006A0000B2AD4ED0C2A94ED0D3AD4ED0E3AE7EE78
:1006B000889AF5EEC04AB0EE4A8A71EEC71AA7EEE4
:1006C000808A32EE442AB0EE490A72EEE52A33EE11
:1006D000463A73EEE63AF1EE10FAA7EEA00AA7EE5C
:1006E000815AA7EEA17AA7EE824AE7EEA25AA7EEB8
:1006F000836AE7EEA36A00F1CD80F4EE684AF1EE7A
:1007000010FA78FEA44AF5EEC09AF1EE10FAC3EDA5
:10071000004A00F1BC80DFED4C7AF4EE679AF1EE0E
:1007200010FA77FEA99AB5EEC08AF1EE10FAC3ED81
:10073000019A00F1A980F7EE007AB4EE678AF1EE33
:1007400010FA37FE888AF6EE007AB4EEE70AF1EE88
:1007500010FA83ED028A00F19480F1EE087AB4EE8B
:10076000670AF1EE10FA37FE800AF5EE007AB4EE71
:10077000E75AF1EE10FA83ED030A7FD4F0EE007A27
:10078000B4EE675AF1EE10FA37FE855AB5EEC07A2C
:10079000F1EE10FA83ED045A4CD4F7EE007AB4EE81
:1007A000677AF1EE10FA37FE877AB4EEC74AF1EEB7
:1007B00010FA83ED057A07D4B7EE007AB4EEC74A93
:1007C000F1EE10FA37FE047ADFED207AF4EEE75A04
:1007D000F1EE10FA83ED067A4DD4F2EE087AF4EEDB
:1007E000675AF1EE10FA77FEA55AB5EEC06AF1EE3F
:1007F00010FAC3ED075A3BD4DFED157AB4EE676A01
:10080000F1EE10FA37FE866ADFED127AF4EEE76A4F
:10081000F1EE10FA83ED086A0FD4BDEC068BF6EE0C
:10082000007AF4EE676AF1EE10FA77FEA66AC3ED7D
:10083000096A10BD9FED0B7AB7E7F0EE676ABDEC71
:10084000068BC3ED096A10BD6666263F0AD7A33C36
:10085000CDCC4C3D0AD7A33B0000A042F7BEBABEA8
:10086000926595BB00000000DB0FC9C0C6373E3A59
:100870001FED046AC8E7F0EE675AB6E7B0EE675AB4
:1008800084E7B0EE670A70E71FED0A8A5BE75FED69
:100890000B9A48E75FED0D4A35E7B0EE667A9AE6C7
:1008A0005FED107A83E6B0EE667A6EE6F0EE667A79
:1008B00022E61FED147A0BE65FED167AF6E51FEDE2
:1008C000177AE1E55FED186A1FED187A67EEA67AF0
:1008D00067EE877A17EE900A99E600BF2DE9F04F90
:1008E000DFED487A89B0EA46DFED474AB0EE005ABC
:1008F000FFEE005ADFED451A9FED452ADFED452A50
:1009000000259FED453A6F46DFF81CE1DFF81CC17A
:100910004249434B00F58262C0F8E8E3C0F8ECC3FB
:10092000C0EDF97ADFF808B111603E4CC0F8E03351
:10093000D0F81436064686465C4000F57C7CBBE861
:100940000F00AAE80F009BE80F008AE80F00DFF80D
:10095000E490DFF8E48009FB0484230A06EE903A71
:10096000F8EEE66A09FB0484210AB7EE006A66EE37
:10097000A46A07EE101AF0EE653AB8EEC77AE6EE12
:10098000853AF0EE466A27EE247AF7EC017AB0EE6B
:10099000654AE3EEA16AA7EE054A67EEA67AB0EED5
:1009A000467A6822ECEC017A0023A4EE027A67EE24
:1009B000A27A964402FB05620135082D8EED257A58
:1009C0008EED243A8CED286ACCED307AC2E92633DC
:1009D000C2E92833C2E92A33C2E92C33C2E92E33F3
:1009E000C2E93033C2E93233C2E93433C2E93633C3
:1009F000C2E93833C2E93A33C2E93C33ABD109B07A
:100A0000BDE8F08F0044AC4701008033CDCCCC3D35
:100A1000CDCC4C3D07ABC54D000000000000164397
:100A2000FD4D7EBFED5EF15100E09245BD3786354C
:100A3000889000100D6619005FF36E3CF8B5012731
:100A4000044600254FF07E569FED4A6ADFED4A6A64
:100A5000B6EE007AF0EE0C7A07704FF07A57474BFB
:100A6000C0E9011243640365454B464A4365464964
:100A7000464BC162C26503634549464A464B01661F
:100A800042630364454A4649464BDFF838C18164F6
:100A900082634366DFF830E1434B444A444980EDCA
:100AA000056AC0ED066A80ED077AC0ED087AC0F8E5
:100AB00028E0C0F83CC0C0F858C0C6600661466275
:100AC00045678567C5678166C2640021E7664FF4A4
:100AD000507223679830C4F88050C4F88850C4F826
:100AE0008C5008F0A5F9C4F8FC60C4F86461C4F83F
:100AF000CC61C4F83462C4F89C62C4F80463C4F8DE
:100B00006C63C4F8D463C4F8D853C4F8DC53C4F895
:100B1000E053C4F8E453C4F8E853C4F8EC5320227B
:100B2000002104F57C7008F083F9224B04F5826201
:100B300004F5C36C04F1140E1560C4F81436BEE855
:100B40000F00ACE80F00BEE80F00ACE80F009EE815
:100B50000300194E194D1A4F8CE803002046C4F8C3
:100B60008470C4F89060C4F89450FFF7B7FE204634
:100B7000F8BD00BF9A99593F3D0AD73E00247449F9
:100B8000005043460000204048E17A3F9A99993F3F
:100B90000000C040BC74933C0AD7233D0AD7A33D54
:100BA000933AF3403333B33E0000904100C07345A5
:100BB000CDCC4C3EDF9B571318588F3DA044933C3F
:100BC0006C7246B60AD7233CE17A143F38B5044626
:100BD0002DED028B002900F04A81AA4D4D40DFED3A
:100BE000AA7A94ED057AB4EEE77AF1EE10FAC4ED44
:100BF000227AC4ED237AC4EDF77AC4EDF67AC4F80C
:100C0000141600F13181F7EE007AB4EE677AF1EE56
:100C100010FA37FE877AD4ED067AF5EEC07AF1EE57
:100C200010FA84ED057A00F11C819FED987AF4EEBC
:100C3000477AF1EE10FA77FE277A94ED077AB5EE4F
:100C4000C07AF1EE10FAC4ED067A00F10781F7EEF2
:100C5000007AB4EE677AF1EE10FA37FE877AD4EDB7
:100C6000087AF6EE006AF4EEE67AF1EE10FA84ED18
:100C7000077A00F1F080B1EE087AF4EE477AF1EEEF
:100C800010FA77FE277A94ED097AF5EE006AB4EE51
:100C9000E67AF1EE10FAC4ED087A00F1D980F0EEB0
:100CA000007AB4EE677AF1EE10FA37FE877AD4ED67
:100CB0000A7AF5EEC07AF1EE10FA84ED097A00F1C5
:100CC0008780B7EE007AF4EE477AF1EE10FA77FEFD
:100CD000277A94ED0B7AF4EEC77AF1EE10FAC4EDB0
:100CE0000A7A07DCF7EE007AB4EEE77AF1EE10FA52
:100CF00077FE877AD4ED0C6A9FED657AF4EEC76AC9
:100D0000F1EE10FAC4ED0B7A00F19F80F2EE087A52
:100D1000F4EE676AF1EE10FA77FEA66A94ED0D7AAA
:100D2000B5EEC07AF1EE10FAC4ED0C6A00F18A80DB
:100D3000DFED587AB4EE677AF1EE10FA37FE877A73
:100D4000D4ED0E7ADFED546AF4EEE67AF1EE10FAA5
:100D500084ED0D7A70D4B6EE007AF4EE477AF1EEB7
:100D600010FA77FE277A94ED0F7ADFED4C6AB4EE35
:100D7000E67AC4ED0E7A434A494BDFED437A91425D
:100D800008BF1D46F1EE10FA04F5C36C04F1140E11
:100D9000BEE80F00ACE80F00BEE80F00ACE80F00A3
:100DA0009EE803008CE80300C4ED207AC4ED1D7AB0
:100DB000C4ED1E7AC4ED1F7AC4F884500BD4F5EE4E
:100DC000007AB4EEE77AF1EE10FA53DD354803E02D
:100DD000DFED2D7A7DE73448D4ED108ADFED2F7AF0
:100DE000F4EEE78AF1EE10FA29D4F6EE007AF4EE8A
:100DF000678AF1EE10FA77FEA88A03F099FDB7EE44
:100E0000008A07EE900A9FED297A78EE677A87EEDE
:100E1000287AC4ED247A17EE100A03F089FD07EE54
:100E2000900A38EE678A204684ED258ABDEC028B55
:100E3000BDE83840FFF752BDF0EE667A93E7F0EE7A
:100E4000678ADAE79FED107A7AE7F0EE476A65E79E
:100E5000B0EE667A2BE7F0EE667A14E79FED0A7A39
:100E6000FDE6DFED097AE8E6B0EE677AD3E6104DED
:100E70001049B4E6DFED0D7AC7EE877A17EE900AD7
:100E8000AAE700BFB3E911A5000000006666263F8F
:100E90000AD7A33CCDCC4C3D0AD7A33B6F12833A73
:100EA0006C3141A3C6373EBB77C239BFC6373EBAA5
:100EB0006C7246B6DF9B571390EDF94A90EDF80A35
:100EC000D0EDFA0A90EDFB5A24EE001A2DED0E8BB0
:100ED000D0ED132AD0ED148A03464FF0000C9FED9D
:100EE0005B9AF7EE006A9FED5A3A01EE901A02EE15
:100EF000102AF1EE453A20EE818A00F57C7091E0EF
:100F0000F4EE678AF1EE10FA48BFF0EE687AF0EC82
:100F100001AA77EE897A85EE2A6A30EEA77ACAEEC0
:100F200085DA36EE266A27EE047A64EE275A27EE33
:100F30002A7A7DEEA6DAB0EE46AAF0EE66CAB0EEE8
:100F400066BAA5EE25AAA3EEA56AE3EEA5CAA5EEAC
:100F500025BA60EE2D9A64EE075AC6EE8A4A35EE3F
:100F60002ACA21EE27DA68EE07BA3DEE87EAB0EE2C
:100F700069AA65EE855A6CEE277AADEE6AAAEDEEA7
:100F80002A9A6CEEA4CAC6EE8EAA2BEE24BA6BEE99
:100F900085BA66EE244A85EE8C6A69EEAA9ACBEE93
:100FA000A75A76EE267AC3ED314AC3ED289A73EE3E
:100FB000654AC6EEA79A3DEEC77A75EE835A36EEBD
:100FC000C66A27EE2A7A26EE296A2AEE2AAA64EE53
:100FD000A94A65EEA95A83ED2B7AC3ED2FCA83ED9A
:100FE0002EBA83ED29AAC3ED354AC3ED345A83EDF9
:100FF000376A90ED286AD0ED307A83ED3D7A36EE8F
:10100000677A77EE867A27EE2A7A67EEAA7A0CF16B
:10101000010CBCF1080F03F1680383ED217AC3EDE5
:10102000207A10D093ED3F7ABCF1030F72FE217A43
:1010300067EE877AF4EEE72AF1EE10FA7FF760AFF9
:10104000F0EE627A63E7BDEC0E8B704700E09245EC
:10105000000000009FEDDB7AD0ED0F7AF4EEC77A46
:10106000F1EE10FAF8B504462DED0A8B0D46164642
:1010700009D4B5EE007AF4EEC77AF1EE10FA40F337
:10108000A187D14800E0D148D4ED108ADFEDCD7AB8
:10109000F4EEE78AF1EE10FA59D4F6EE007AF4EEA7
:1010A000678AF1EE10FA77FEA88A03F041FCB7EEEA
:1010B000008A07EE900A9FEDC67A78EE677A87EE8F
:1010C000287AC4ED247A17EE100A03F031FC07EEFB
:1010D000900A38EE678A204684ED258A04F5C367B6
:1010E000FFF7BEF9D7ED078ADFEDBA7AF4EEE78AAB
:1010F000F1EE10FA00F12081F2EE087AF4EE678A40
:10110000F1EE10FA77FEA88A97ED088AB5EEC08A4C
:10111000F1EE10FA00F10D81DFEDAF7AB4EE678ADF
:10112000F1EE10FA37FE888AD7ED097A9FEDAB7A97
:10113000F4EEC77AF1EE10FA0CD4B6EE007AF4EEC3
:10114000C77AF1EE10FA40F33187A54803E0F0EEDC
:10115000678AAAE7A34803F0EBFBB7EE005A07EE55
:10116000900AD4F88420A049A04B35EE676A01FBB1
:101170000233C4F884301B0A07EE903ADFED9C6A14
:10118000FFEE005AF8EEE77AF0EE004A67EEA67A34
:10119000F0EE656A94ED207AE7EEA46AF0EE477A05
:1011A00076EEC76AE6EE267AF4EEE57AF1EE10FA0C
:1011B00040F1DB86B1EE488AF0EE657AF7EE006A20
:1011C000C4ED207A78EE267ADFED8A5A67EEA87AA7
:1011D00094ED1D7A67EEA57A9FED876AA7EE867A71
:1011E000B4EEE67AF1EE10FADFED847AA8BF37EEBE
:1011F000667AB4EEE77AF1EE10FA84ED1D7A40F1EA
:10120000AA86F0EE045A67EE255AD4ED1B7AF5EE65
:10121000C07AF1EE10FA00F19A86F6EE006AF4EE6A
:10122000667AF1EE10FA76FEA77A77EE877AB7EE55
:10123000007AF4EEC77AF1EE10FAA8BF77EEC77A1B
:101240009FED6E7AF4EEC77AF1EE10FA40F17586F2
:10125000B0EE047A27EE877A94ED1A6ADFED687AA9
:10126000B4EEE76AF1EE10FA00F16386F7EE007A69
:10127000B4EE676AF1EE10FA37FE866AD4ED1E7A94
:1012800075EEE75AD4ED1F6AE5EE867A37EE667A98
:10129000F5EEC07AE6EE076AF1EE10FAC4ED1E7ABA
:1012A000C4ED1F6A00F14186B7EE007AF4EE477A8A
:1012B000F1EE10FA77FE277AF5EEC06AF1EE10FA39
:1012C0007DD4B7EE007AF4EE476AF1EE10FA77FEBD
:1012D000266AD4ED188AB0EE005AF4EEC58AF1EE13
:1012E00010FA04F22C6204F5C66392ED007AD3ED95
:1012F000005A04F21C6204F5C463D2ED009A93ED27
:1013000000AA04F2246204F5C56397ED006A92ED29
:10131000009AD3ED00AA12D4B2EE085AF4EEC58AB0
:10132000F1EE10FA40F33E86BAEE088AF0EE458AF6
:1013300009E09FED348AF7E6F0EE678AE4E6B8EE5E
:10134000008AF0EE458A66EE277A75EEC75A26EED9
:10135000266AF0EE476AD4ED22BAE7EEA56AF4EE0B
:10136000E6BA94ED23BAF1EE10FAA5EE867A4CBFF8
:10137000D4ED247AD4ED257AB4EEC7BA76EEEB6AD2
:10138000F1EE10FAE7EEA6BA37EE4B7A4CBFD4ED89
:10139000247AD4ED257AF5EEC0BAA7EE87BAF1EE3D
:1013A00010FA84ED23BA31D4F7EE007AF4EEE7BAFE
:1013B000F1EE10FA40F3EA85F0EE67BA28E0DFEDCF
:1013C000116A86E76F12833AC6373EBB77C239BFD0
:1013D000C6373EBA0AD7A33CCDCC4C3D0AD7A33B77
:1013E000926515BB553ABFB70D6619005FF36E3CA9
:1013F00001008033C637BE3700000042CDCCCC3E62
:101400000AD7233C00000000EF9293215FED03BA5E
:101410005FED047AB4EEE7BAF1EE10FAC4ED22BA49
:1014200000F1AE85F7EE007AB4EE67BAF1EE10FA8D
:1014300037FE8BBAF5EE40BAF1EE10FA84ED23BA1E
:1014400000F1C885F1EEEB7AB5EE40BAF1EE10FA94
:101450006BEEA7BA00F1C885F1EECBCAD4ED127AD3
:1014600067EEEB7A17EE900A94ED11CA03F060FA7A
:1014700094ED127A6CEE8B7A67EE677A06EE900A3C
:1014800017EE900AD4ED11CA2CEE26CA03F050FADA
:10149000D4ED13BAF4EECCBA07EE900AF1EE10FADE
:1014A00094ED147A6CEEA77A00F33B85B4EE4C7A97
:1014B000F1EE10FA48BFB0EE47CAF4EEE7BAF1EE2B
:1014C00010FA08DCB4EEE77AF1EE10FA54BFF0EE51
:1014D00067BAF0EE47BA1BEE902A1CEE101A2046AF
:1014E000FFF7EAFCD4ED156A94ED165AC6EE8C5A55
:1014F000F4EEC55AF1EE10FA94ED177A00F10D856D
:10150000F4EE475AF1EE10FA77FE255AC6EEAB7AA2
:10151000B4EEE75AF1EE10FA08DCB4EEE77AF1EE39
:1015200010FA54BFB0EE675AB0EE475AD4E9012121
:101530002B46B7EE006A5FED4C7A2078354603F112
:101540008006B3EC014AD4EDF73A74EE233AD4EDB9
:10155000266A63EE893A94ED293A66EE836AB0EE24
:10156000E33A94ED327AD4ED35BA33EE063A27EE0B
:101570002B7AD4ED194AC3EE83BA6BEEA43A94EDFC
:101580003EBAB0EE633A94ED340AA5EE8B3AD4ED50
:10159000280A94ED331A94ED272AD4ED2B2AE3EE92
:1015A000206AD4ED371AA3EE807AE2EE626AA1EEE9
:1015B000617A84ED263A36EEA73A77EE266AF4EEA3
:1015C000C86A77EE272AF1EE10FAC4ED323AC4ED7C
:1015D000332A84ED273A00F19C84F4EE668AF1EE1A
:1015E00010FA48BFF0EE686A94ED2C7AD4ED2F1A09
:1015F00094ED2E2A27EE217AD4ED2D2AA6EE827ABA
:1016000094ED313AA2EEC37AB4EEC87AC4ED2C6AF6
:10161000F1EE10FA77EE276AC4ED2D6A00F17584B9
:10162000F4EE478AF1EE10FA48BFB0EE687A94ED16
:10163000383AD4ED3BBAD4ED4F2A23EE2B3AD4ED11
:101640004CBAD4ED406A6BEEA22AD4ED43BA66EEF2
:10165000AB6AD4ED3ABA94ED3DBAA3EEAB3AC4ED21
:10166000383AD4ED393AA3EECB3A77EE033A63EE4B
:10167000893A84ED3E7AB0EEE37A33EE273A37EEDC
:10168000067A84ED393A83EE873A63EE243A94ED94
:10169000587AB0EE633A94ED420AA5EE873AB0EE7E
:1016A000627AD4ED4E2AD4ED4D0AD4ED411AA3EE60
:1016B000A27AE3EE006A94ED511A94ED452AA0EE69
:1016C000C17AE1EEC26A84ED403A36EEA73A77EE8F
:1016D000266AF4EEC86A77EE272AF1EE10FAC4ED16
:1016E0004C3AC4ED4D2A84ED413A00F10A84F4EEFF
:1016F000668AF1EE10FA48BFF0EE686A94ED467A19
:10170000D4ED491A94ED482A27EE217AD4ED472AE0
:10171000A6EE827A94ED4B3AA2EEC37AB4EEC87A82
:10172000C4ED466AF1EE10FA77EE276AC4ED476A17
:1017300000F1E483F4EE478AF1EE10FA48BFB0EE10
:10174000687A94ED523AD4ED55BAD4ED692A23EE75
:101750002B3AD4ED66BAD4ED5A6A6BEEA22AD4EDD8
:101760005DBA66EEAB6AD4ED54BA94ED57BAA3EE07
:10177000AB3AC4ED523AD4ED533AA3EECB3A77EEFE
:10178000033A63EE893A84ED587AB0EEE37A33EEA9
:10179000273A37EE067A84ED533A83EE873A63EEC2
:1017A000243A94ED727AB0EE633A94ED5C0AA5EEB9
:1017B000873AB0EE627AD4ED682AD4ED670AD4EDA8
:1017C0005B1AA3EEA27AE3EE006A94ED6B1A94ED35
:1017D0005F2AA0EEC17AE1EEC26A84ED5A3A36EE93
:1017E000A73A77EE266AF4EEC86A77EE272AF1EE7A
:1017F00010FAC4ED663AC4ED672A84ED5B3A00F155
:101800007A83F4EE668AF1EE10FA48BFF0EE686A69
:1018100094ED607AD4ED631A94ED622A27EE217A72
:10182000D4ED612AA6EE827A94ED653AA2EEC37AEF
:10183000B4EEC87AC4ED606AF1EE10FA77EE276A6A
:10184000C4ED616A00F15483F4EE478AF1EE10FAB8
:1018500048BFB0EE687A94ED6C3AD4ED6FBAD4ED2F
:10186000832A23EE2B3AD4ED80BAD4ED746A6BEE62
:10187000A22AD4ED77BA66EEAB6AD4ED6EBA94EDD7
:1018800071BAA3EEAB3AC4ED6C3AD4ED6D3AA3EE67
:10189000CB3A77EE033A63EE893A84ED727AB0EE92
:1018A000E37A33EE273A37EE067A84ED6D3A83EE2B
:1018B000873A63EE243A94ED8C7AB0EE633A94ED75
:1018C000760AA5EE873AB0EE627AD4ED822AD4ED9C
:1018D000810AD4ED751AA3EEA27AE3EE006A94EDC4
:1018E000851A94ED792AA0EEC17AE1EEC26A84ED00
:1018F000743A36EEA73A77EE266AF4EEC86A77EEC7
:10190000272AF1EE10FAC4ED803AC4ED812A84ED65
:10191000753A00F1EA82F4EE668AF1EE10FA48BFF9
:10192000F0EE686A94ED7A7AD4ED7D1A94ED7C2A13
:1019300027EE217AD4ED7B2AA6EE827A94ED7F3AC7
:10194000A2EEC37AB4EEC87AC4ED7A6AF1EE10FA68
:1019500077EE276AC4ED7B6A00F1C482F4EE478A11
:10196000F1EE10FA48BFB0EE687AD4ED866A94EDD5
:10197000893A94ED881A66EE836AD4ED871AE3EE0D
:10198000816A94ED8B2A69EE872AE1EEC26AB0EE95
:10199000E23A84ED8C7A37EE267AC4ED863A27EE69
:1019A000097A73EE063A82EEA33AF0EEC73A76EE83
:1019B000A76A73EE863AC4ED876AC7EE236A84EDA0
:1019C000F73A66EEA44A002800F0878236EE4A7A9B
:1019D0006AEE244AD4ED036AE7EE044A64EEA64AAE
:1019E00064EEAA4AE2EC014AB5EC014AD4EDF63ABB
:1019F00074EE233AD4ED8E6A63EE893A94ED913A0F
:101A000066EE836AB0EEE33A94ED9A7A94ED9DBA6D
:101A100033EE063A27EE0B7AD4ED194A83EE83BAF9
:101A20006BEE243A94EDA6BAB0EE633A94ED9C0ABC
:101A3000A5EE0B3AD4ED900AD4ED9B1A94ED8F2AC3
:101A4000D4ED932AE3EE206A94ED9F1AA0EE237A58
:101A5000E2EE626AA1EE617A84ED8E3A36EEA73A42
:101A600077EE266AF4EEC86A77EE272AF1EE10FACE
:101A7000C4ED9A3AC4ED9B2A84ED8F3A00F12A8294
:101A8000F4EE668AF1EE10FA48BFF0EE686A94ED63
:101A9000947AD4ED971A94ED962A27EE217AD4ED14
:101AA000952AA6EE827A94ED993AA2EEC37AB4EE24
:101AB000C87AC4ED946AF1EE10FA77EE276AC4EDA5
:101AC000956A00F10482F4EE478AF1EE10FA48BFFD
:101AD000B0EE687A94EDA03A94EDA3BAD4EDB72AAB
:101AE00023EE0B3A94EDB4BAD4EDA86A6BEE222A39
:101AF00094EDABBA66EE8B6A94EDA2BAC4EDA03A4F
:101B0000A3EE8B3AD4EDA13A94EDA5BAA3EECB3A6D
:101B100077EE033A63EE893A84EDA67AB0EEE37A83
:101B200033EE273A37EE067A84EDA13A83EE873A10
:101B300063EE243A94EDC07AB0EE633A94EDAA0ACB
:101B4000A5EE073AB0EE627AD4EDB62AD4EDB50A26
:101B5000D4EDA91AA3EEA27AE3EE006A94EDB91AC5
:101B600094EDAD2AA0EEC17AE1EEC26A84EDA83A06
:101B700036EEA73A77EE266AF4EEC86A77EE272AA1
:101B8000F1EE10FAC4EDB43AC4EDB52A84EDA93AE9
:101B900000F19A81F4EE668AF1EE10FA48BFF0EE99
:101BA000686A94EDAE7AD4EDB11A94EDB02A27EEBE
:101BB000217AD4EDAF2AA6EE827A94EDB33AA2EE62
:101BC000C37AB4EEC87AC4EDAE6AF1EE10FA77EEDD
:101BD000276AC4EDAF6A00F17481F4EE478AF1EE32
:101BE00010FA48BFB0EE687A94EDBA3A94EDBDBAF7
:101BF000D4EDD12A23EE0B3A94EDCEBAD4EDC26ADD
:101C00006BEE222A94EDC5BA66EE8B6A94EDBCBAEF
:101C1000C4EDBA3AA3EE8B3AD4EDBB3A94EDBFBA19
:101C2000A3EECB3A77EE033A63EE893A84EDC07ABD
:101C3000B0EEE37A33EE273A37EE067A84EDBB3A1C
:101C400083EE873A63EE243A94EDDA7AB0EE633AA3
:101C500094EDC40AA5EE073AB0EE627AD4EDD02A2C
:101C6000D4EDCF0AD4EDC31AA3EEA27AE3EE006A54
:101C700094EDD31A94EDC72AA0EEC17AE1EEC26AC0
:101C800084EDC23A36EEA73A77EE266AF4EEC86AD9
:101C900077EE272AF1EE10FAC4EDCE3AC4EDCF2A42
:101CA00084EDC33A00F10A81F4EE668AF1EE10FA8F
:101CB00048BFF0EE686A94EDC87AD4EDCB1A94ED83
:101CC000CA2A27EE217AD4EDC92AA6EE827A94EDAB
:101CD000CD3AA2EEC37AB4EEC87AC4EDC86AF1EE8A
:101CE00010FA77EE276AC4EDC96A00F1E480F4EED9
:101CF000478AF1EE10FA48BFB0EE687A94EDD43A14
:101D000094EDD7BAD4EDEB2A23EE0B3A94EDE8BA72
:101D1000D4EDDC6A6BEE222A94EDDFBA66EE8B6AB4
:101D200094EDD6BAC4EDD43AA3EE8B3AD4EDD53ABD
:101D300094EDD9BAA3EECB3A77EE033A63EE893A43
:101D400084EDDA7AB0EEE37A33EE273A37EE067AAC
:101D500084EDD53A83EE873A63EE243A94EDF47A33
:101D6000B0EE633A94EDDE0AA5EE073AB0EE627A81
:101D7000D4EDEA2AD4EDE90AD4EDDD1AA3EEA27A75
:101D8000E3EE006A94EDED1A94EDE12AA0EEC17A3B
:101D9000E1EEC26A84EDDC3A36EEA73A77EE266AC7
:101DA000F4EEC86A77EE272AF1EE10FAC4EDE83AAD
:101DB000C4EDE92A84EDDD3A7AD4F4EE668AF1EED8
:101DC00010FA48BFF0EE686A94EDE27AD4EDE51AB5
:101DD00094EDE42A27EE217AD4EDE32AA6EE827A66
:101DE00094EDE73AA2EEC37AB4EEC87AC4EDE26AA3
:101DF000F1EE10FA77EE276AC4EDE36A55D4F4EEFB
:101E0000478AF1EE10FA48BFB0EE687AD4EDEE6A78
:101E100094EDF13A94EDF01A66EE836AD4EDEF1A80
:101E2000E3EE816A94EDF32A69EE872AE1EEC26A55
:101E3000B0EEE23A84EDF47A37EE267AC4EDEE3A6B
:101E400027EE097A73EE063A82EEA33AF0EEC73A2D
:101E500076EEA76A73EE863AC4EDEF6AC7EE236AA0
:101E600084EDF63A66EEA44A98B176EE4A6A2AEE16
:101E7000247AD4ED043AA6EE847A27EE237A27EE6C
:101E80002A7AB342A1EC017A7FF45BABBDEC0A8BFA
:101E9000F8BD94ED047A64EE874A64EEAA4AB34230
:101EA000E1EC014A7FF44DABF0E7B0EE487AADE7E4
:101EB000F0EE486A88E7B0EE487A1FE7F0EE486A2D
:101EC000F9E6B0EE487A8FE6F0EE486A69E6B0EEE1
:101ED000487AFFE5F0EE486AD9E594ED037A64EEBE
:101EE000874A7DE5B0EE487A3FE5F0EE486A19E5AD
:101EF000B0EE487AAFE4F0EE486A89E4B0EE487A92
:101F00001FE4F0EE486AFFF7F9BBB0EE487AFFF73E
:101F10008EBBF0EE486AFFF767BBF0EE455AFFF75D
:101F2000F5BAB0EE6BCAFFF7C8BADFED337AFFF748
:101F3000C3B9B0EE676AFFF7A1B977EEC77ADFEDF4
:101F40002F6AB7EE007AA7EEE67AFFF785B9DFEDE4
:101F50002A7AFFF76AB977EE677ADFED286AF7EE3B
:101F6000005AE7EEE65AFFF750B9F4EEC57AF1EE03
:101F700010FAD4BF28EE278AF0EE457AFFF71EB993
:101F8000C4ED237AB0EE67BAFFF75CBAB5EEC0BA1B
:101F9000F1EE10FAC4ED22BA7FF544AA9FED16BA0D
:101FA000FFF748BAB1EE688AFFF7CDB9DFED146AE2
:101FB0009FED147A67EEA67A67EE877A17EE900A9D
:101FC000FFF7C9B89FED107AC7EE277A17EE900A8F
:101FD000FFF75AB81BEE900A06F0BEFF94ED23BA45
:101FE00007EE900AFFF730BA1BEE100A06F0B4FFB6
:101FF0000CEE900AFFF732BA000000002653D53FDE
:10200000DB0FC9C0C6373E3AC6373EBA2DE9F04F9E
:102010002DED068B8DB0044808AB07AA06A902F087
:1020200019F8049010B9FEE700301308DDE9071233
:10203000069801F03BFF04F0C5F8502001F0E4FDE4
:10204000CB4BCC48996AFEF7C1FD09211520DFF87A
:1020500090A300F0BFFE0C2200230821152001F000
:10206000F7FE142001F0D0FDC349504606F034FDC0
:102070000346C2495046029306F02EFD0346C04A6D
:10208000C049504602F58075039306F025FD4FF4D4
:1020900040230A934FF4C01308934FF040234FF0AE
:1020A000010B02990B934A1DCB0143EA023323F043
:1020B000C043062105901020099300F08BFE0621F5
:1020C000112000F087FE002102231022CDF800B07D
:1020D000504606F085FD0DF1200C63460021029A62
:1020E000504606F0C5FD4FF480320399A64BA74831
:1020F0000892CDE90A3001F10F02CB0143EA023325
:1021000006211220099300F065FE5B465946122213
:10211000CDF800B0504606F063FD5946039A08AB6F
:10212000504606F0A5FD4FF4803308934FF4182372
:1021300005990B93A3F1802301F10F020A93CB01C0
:1021400043EA023306211320099300F043FE0020E6
:102150005B46022113220090504606F041FD059A8D
:1021600008AB0221504606F083FD584606F0D4FD28
:102170008749884C0860584606F0CEFD8449864B56
:10218000D1F800E0DFF85CC203EA4E314FEA8E126C
:10219000824B02F1A0421360A5F580735360402387
:1021A00041F4402141F04B019360116102467A4BAA
:1021B0000BFA0EFE03EA423343F4003343F01B03F1
:1021C0000293774B0A201A60CCF804E4754B4FEA6F
:1021D000821E0EF1A04ECEF80030734B0BFA02F2C5
:1021E000CEF804304023CEF80830029B6F49CEF879
:1021F0001030CCF8042400F08BFF59460A2000F080
:1022000043FF5C48DFF8E091014680F800B02046CB
:10221000FEF77EF800204FF0020C654A4FF00043B5
:102220001060644A4FF0100E1060634A2021C2F81B
:1022300000C0624A89F8000089F8010010705070EF
:102240004020DAF80020DFF8A4C122F00102CAF829
:102250000020DAF80020DFED5A9A22F00202CAF8D4
:102260000020DAF800209FED659A22F00402CAF8F7
:102270000020544ACCF80030CCF80030CCF81830AC
:10228000CCF81830C2F800E0116041491060444BAE
:102290000A681B68920102F1A042A5F580715160A5
:1022A0009B01D0613F4A03F1A0431A60D861DAF87C
:1022B00000309FED45AA43F00203CAF80030DAF877
:1022C0000030424E43F00403CAF80030DAF8003020
:1022D000DFF81C8143EA0B03CAF8003001F02EFD41
:1022E0008B463B4F0390DFED3B8A9FED3B8A236893
:1022F000002B00F0B1814FF0010E4FF0504A1C4A04
:1023000094F80EC0916A62680CF00F0C0292334A86
:10231000A06802EB8C0C029A0EFA00F00EFA02F2A0
:10232000DAF804E012EA0E0FDAF8042014BF4FF0D6
:10233000010E4FF0000E104214BF0122002242EAAB
:102340004E021CF802006273C206A07300F1AD8158
:10235000820640F13D81B7EE007AFFEE007A227BE3
:10236000002A626A47FE877A002A40F0AA814BE081
:1023700000000B402C1D0020B8900010B090001001
:1023800014180020A8900010000006401200100051
:10239000901100206C230020FDFF01FC280020503C
:1023A00094110020281C0020140020502902001045
:1023B0001C1C0020281D002098110020241C002037
:1023C0000AD7233C00202050FEFFFF4A141B0020A8
:1023D000242500200AD7A33B000000006C900010C9
:1023E0000000205000200050201C0020E810205049
:1023F0002424002014AE3F41AE47613E0AD7A33CDF
:102400006666263FCDCC4C3DF7EE005AF0EE654AAD
:102410006162227F002A40F0728193ED0C7A5FEDB9
:102420000B6A37EE496AC6EE265AF5EEC05AF1EE4F
:1024300010FA00F1F783F7EE006AF4EEE65AF1EED7
:1024400010FA40F393835FED146A66EEA76AF0EE2C
:10245000477AE4EEA67AF4EEC97AF1EE10FA40F18A
:10246000CF835FED1A7AD3ED056AF5EEC06AF1EE1F
:1024700010FA00F1C283B7EE007AF4EE476AF1EE8B
:1024800010FA77FE266A93ED067AB5EEC07AF1EE81
:1024900010FAC3ED056A00F1AD835FED276AB4EE73
:1024A000667AF1EE10FA36FE877AD3ED076AF5EE1A
:1024B000C06AF1EE10FA83ED067A00F19883B7EE68
:1024C000007AF4EE476AF1EE10FA77FE266A93ED91
:1024D000087AB6EE006AB4EEC67AF1EE10FAC3EDF1
:1024E000076A00F18183F1EE086AB4EE667AF1EED4
:1024F00010FA36FE877AD3ED096AB5EE006AF4EE7B
:10250000C66AF1EE10FA83ED087A00F16A83B0EE44
:10251000007AF4EE476AF1EE10FA77FE266A93ED40
:102520000A7AB5EEC07AF1EE10FAC3ED096A00F14D
:102530005583F7EE006AB4EE667AF1EE10FA36FED5
:10254000877AD3ED0B6AB4EEE67AF1EE10FA83EDFA
:102550000A7A07DCB7EE007AF4EEC76AF1EE10FAF9
:1025600037FE267AF4EEC97AF1EE10FA83ED0B7A93
:1025700000F13183B2EE087AF4EE477AF1EE10FA08
:1025800077FE277A93ED0D7AB5EEC07AF1EE10FA68
:10259000C3ED0C7A00F104835FED667AB4EE677ADE
:1025A000F1EE10FA37FE877AD3ED0E7AF4EEE87A80
:1025B000F1EE10FA83ED0D7A00F1EF82B6EE007ABB
:1025C000F4EE477AF1EE10FA77FE277AC3ED0E7A31
:1025D0004FF050404FF0010E226940680EFA02F2AF
:1025E00002400CBF7046002094F815C0844500F0EE
:1025F000B38194F814E06075A161BEF1000F03D0BF
:10260000627F002A00F0468394F82A30002B40F0C5
:10261000BB8194F82820062342EC403094F83230F5
:10262000002B00F02A81626B891A0029C0F29B827C
:1026300002F59C328032626394F83120013BDBB2B8
:1026400082F0010284F8323084F83120002B00F04F
:102650001481072342EC403099F8003003F0FF0268
:10266000002B40F00D8199F80130002B40F0CC8117
:1026700001F064FB4FF0000C039BD04AC01A61EBE1
:102680000B0182427CEB0103BFF631AE01F056FB39
:102690008446CB4BCB4A1B688B4612681946CA4806
:1026A000CDF80CC003F04CFE1DE6BFEE007AF7EE4D
:1026B000007A227B002A626A47FE877A002A3FF46A
:1026C000A3AE8A1A616212D042F6DF60824240F203
:1026D000AC8245F2EF50824240F2B0824AF6C770B7
:1026E000824240F2CB82B948824240F2CD82F7EE7C
:1026F000005A227FF0EE654A002A3FF48EAE93ED39
:10270000057AB5EEC07AF1EE10FA40F19D82B0EE96
:10271000696A66EE277AA7EEA57AB5EEC07AF1EE81
:1027200010FA40F14F829FEDAA7AD3ED067AF5EECA
:10273000C07AF1EE10FA83ED057A00F140829FED48
:10274000A57AF4EE477AF1EE10FA77FE277A93ED48
:10275000077AB5EEC07AF1EE10FAC3ED067A00F111
:102760002B82F7EE007AB4EE677AF1EE10FA37FEBC
:10277000877AD3ED087AF6EE006AF4EEE67AF1EEA7
:1027800010FA83ED077A00F11482B1EE087AF4EEC4
:10279000477AF1EE10FA77FE277A93ED097AF5EE93
:1027A000006AB4EEE67AF1EE10FAC3ED087A00F1B1
:1027B000FD81F0EE007AB4EE677AF1EE10FA37FEA2
:1027C000877AD3ED0A7AF5EEC07AF1EE10FA83ED4E
:1027D000097A00F1E881B7EE007AF4EE477AF1EE7B
:1027E00010FA77FE277A93ED0B7AF4EEC77AF1EEC2
:1027F00010FAC3ED0A7A07DCF7EE007AB4EEE77A56
:10280000F1EE10FA77FE877A93ED0C7AB4EEC97A7E
:10281000F1EE10FAC3ED0B7A00F10182F2EE087AC4
:10282000B4EE677AF1EE10FA37FE877AD3ED0D7ABF
:10283000F5EEC07AF1EE10FA83ED0C7A00F1EC813E
:102840009FED657AF4EE477AF1EE10FA77FE277A7B
:1028500093ED0E7AB4EEE87AF1EE10FAC3ED0D7A4C
:1028600000F1D781F6EE007AB4EE677AF1EE10FA55
:1028700037FE877A83ED0E7AAAE694F83020E8E6F0
:10288000BFF35F8F0023DFED5F6A89F800305348A4
:10289000534B54491A680833121207EE102A53F8A2
:1028A000042CB8EEC77A121207EE902AF8EEE77AF7
:1028B00027EE267A67EEA67A9D42A0EC017AE1EC3B
:1028C000017AE7D1474A45494748FEF7C3FBB7EECF
:1028D000007AFFEE006A4549454B464ADFF81CC1C5
:1028E000DFF81CE10DE06046F2EC017AF4EEC77A05
:1028F000F1EE10FA18601ADD6046586008339E4207
:1029000024D0F1EC017AF4EEC77AF1EE10FAEADCA9
:10291000F4EEE67AF1EE10FA48BF7046E4D467EEC2
:102920008A7AFDEEE77A17EE900A0002DCE7F4EE11
:10293000E67AF1EE10FA48BF7046DED467EE8A7A86
:10294000FDEEE77A17EE900A0002D6E7BFF35F8F3D
:102950000123294A13708BE694F814E0F4453FF400
:102960004CAE43F6972AA069081A50457FF645AE4B
:1029700084F814C0002A40F0B68094F82A306277B8
:102980002162002B3FF445AEE06A94F82920A1EBC8
:10299000000CBCF1000FFFF63EAE013B00F59C3091
:1029A00082F00102DBB28030E06284F8292084F8F2
:1029B0002A30002B7FF42FAE2BE600BF40420F00E1
:1029C000141C0020181C0020489000107F380100C3
:1029D000000000006666263FCDCC4C3DA4230020BD
:1029E00014180020242400202C1D0020A4240020E2
:1029F000141A002024250020241C002000FFFF7F43
:102A00000001008000000034BFF35F8F5FED036AB8
:102A1000C34BC449C44889F80120D3F800210833C6
:102A2000121207EE102AD3F8FC20B8EEC77A121261
:102A300007EE902A27EE267AF8EEE77AA1EC017AE3
:102A400067EEA67A8845E0EC017AE6D1B64AB54948
:102A5000B648FEF7FFFAB7EE007AFFEE006AB44A16
:102A6000B44BB549DFF804C3DFF804E310E0604677
:102A7000F1EC017AF4EEC77AF1EE10FAC3F8000136
:102A80001CDD6046BA42C3F8040103F1080324D0F8
:102A9000F2EC017AF4EEC77AF1EE10FAE7DCF4EE2C
:102AA000E67AF1EE10FA48BF7046E1D467EE8A7A12
:102AB000FDEEE77A17EE900A0002D9E7F4EEE67A27
:102AC000F1EE10FA48BF7046DCD467EE8A7AFDEE6C
:102AD000E77A17EE900A0002D4E7BFF35F8F012375
:102AE000964A5370C4E5627F002A7FF48DAD4FF0A3
:102AF0000102207F84F82A201B7894F8282080F097
:102B00000100207784F8280001F59C3083F0010350
:102B100082F001028030E06284F83030062084F8D0
:102B2000292042EC400094F83200C0B1D4F834C0FF
:102B3000A1EB0C0EBEF1000F7DDB0CF59C3C0CF103
:102B4000800CC4F834C094F831C00138C0B28CF0A5
:102B5000010C84F8320084F831C000B163460720CC
:102B600043EC400057E594F8312072E5B0EE003AAE
:102B7000B0EE086A65EEA53AA5EEC36A9FED704A0D
:102B800026EE236ADFED6F6A9FED6F5AE6EE046A68
:102B900066EE055AE5EE866A57E4DFED6C7A15E5D8
:102BA000B0EE487A00E5DFED6A7A1CE6B0EE667AB0
:102BB00007E6F0EE667AF0E59FED657AD9E5F0EE8E
:102BC000487AC4E5F7EE007AB4EE677AF1EE10FACF
:102BD00037FE877AA9E5DFED5F7AD3E49FED5C7A73
:102BE000AFE4F0EE466A9AE4B0EE467A83E4DFEDB5
:102BF000586A6CE4B0EE487A57E4DFED556A42E477
:102C0000B2EE087AF4EE477AF1EE10FA77FE277A00
:102C100029E49FED4E7A2DE6F0EE487A18E69FED16
:102C20004D7A03E6DFED476A0FE4DFED4B5AF1EE34
:102C3000004AFFF7EEBB94F831C08FE7DFED475A4B
:102C4000F0EE084AFFF7E5BBF7EE006AB4EEE67A6D
:102C5000F1EE10FAC8BFB0EE496A3FF75AADF0EE98
:102C6000004AF0EE086A27EE075AE7EE646AB0EE13
:102C7000696A66EE856AA6EEA96A4AE5DFED385A0A
:102C8000F0EE004AFFF7C5BBDFED365ADFED364AFE
:102C9000FFF7BFBB206ADFF8DCC0081A60457FF68B
:102CA000B3AC4FF0010C187880EA0C00187084F86F
:102CB0001DC0002860D001F59C3394F830008033AB
:102CC00084F832C0636394F81CC094F82A3080F012
:102CD000010084F8310084F828C084F83020002BEB
:102CE00062D0E26AA1EB020EBEF1000F63DB02F5D7
:102CF0009C328032E26294F82920013BDBB282F000
:102D0000010284F82A3084F82920002B4CD04FF09F
:102D1000060C42EC40C0072240EC402034E600BFE5
:102D200014180020A4230020242400202C1D00209F
:102D3000A4240020141A002024250020241C002094
:102D4000CDCC4C3DCDCCCC3CE17A143E0AD7A33B54
:102D5000000000000AD7A33C333303409A99D93FBF
:102D6000CDCCAC3F85EB913F3333B33F00FFFF7FCA
:102D7000000100805FAE0A00032384F8323001F5C1
:102D80009C3394F83000803394F81CC0049A636339
:102D900094F82A3080F0010084F8310084F828C0CB
:102DA00084F83020002B9CD106234CEC40300723C4
:102DB00040EC40302DE494F82920A8E7024A03496A
:102DC0000348FDF73BBE00BF24250020A4240020BB
:102DD0002C1D002010B44FF480740C4B53F82020AD
:102DE00003EB8003C00082F0400200F1804003F555
:102DF000805C02F0C00200F5203003F54053CCF8AF
:102E0000002041601C605DF8044B70470480034063
:102E1000002915BF0C2104214FF0080C4FF0000CC5
:102E2000002A08BF6146064B53F8202003EB8003BD
:102E30004A4003F5805302F00C021A60704700BF4D
:102E40000480034030B4002343EC440043EC4000D2
:102E500005254FF480740B4BC20053F8201003EB90
:102E6000800081F0400102F1804303F5203301F03E
:102E7000C00200F5805100F540500A605D600460BA
:102E800030BC7047048003400FB400B583B0049C8D
:102E9000074803F0D7F93CB105A92046019103F09A
:102EA0004FF8044803F0CEF9012003F061F800BFA9
:102EB0000C9100101C910010EFF3108072B6064BBD
:102EC000D3E8CF1F01220029FAD1C3E8412F0029FE
:102ED000F6D1BFF35F8F7047532700200023034ACA
:102EE000C2E88F3F80F31088704700BF532700204F
:102EF00070B5EFF3108572B6134CD4E8CFCF01262E
:102F0000BCF1000FF9D1C4E84C6FBCF1000FF4D153
:102F1000BFF35F8F4FF0010C4FEAD10E01F00703B2
:102F20000CFA03F310F80EC01CEA030608D14CEAB1
:102F3000030300F80E30C4E88F6F85F3108870BD6E
:102F40001046FFF7A1FF00BF53270020F8B5EFF3AD
:102F5000108572B6234CD4E8CF7F0126002FFAD11A
:102F6000C4E8476F002FF6D1BFF35F8F9A4227D88E
:102F70000126D70810F807E002F0070C06FA0CFC4F
:102F80001EEA0C0F00EBD2070DD125E04FEAD20E5E
:102F900010F80EE002F0070C06FA0CFC1EEA0C0F0B
:102FA00000EBD20718D001329342EFD24FF0FF303E
:102FB0000023C4E88F3F85F31088984207DBF8BDF3
:102FC0000023C4E88F3F85F310884FF0FF300029BD
:102FD000F5D00698FFF758FF4EEA0C0C104687F81C
:102FE00000C0E5E753270020044A1078431CDBB2F9
:102FF000172B88BF10231370704700BF9C1100204F
:1030000010B5054C82B001461F23182200940348D6
:10301000FFF79CFF02B010BD20910010702B002024
:103020004FF0E022936843F000539360704700BF75
:103030000021044B03F12002C3E88F1F01339342A8
:10304000FAD17047482700204FF0E0234FF080323C
:10305000C3F80024C3F80424C3F80824C3F80C24DC
:10306000C3F81024C3F81424C3F81824C3F81C248C
:10307000C3F82024C3F82424C3F82824C3F82C243C
:10308000C3F8302462B67047012300F01F0293405A
:10309000400941B1800000F1604000F56140C0F896
:1030A000803103607047024A203042F82030704778
:1030B00000E100E00123064A410952F8212000F016
:1030C0001F0003FA00F0104214BF1846002070479A
:1030D00000E100E001224309044900F01F0002FA68
:1030E00000F0403341F82300704700BF00E100E0EA
:1030F000054A10309268054B52F82000C01A2F285C
:103100008CBF00200120704700ED00E0A0110020DE
:10311000F8B50D46EFF3108772B6124ED6E8CF2FF2
:103120000123002AFAD1C6E8423F002AF6D1BFF3B4
:103130005F8F0D4B00F110049B680C4A53F824304C
:10314000934203D0994201D001F046F9064B9B68A7
:1031500043F82450BFF35F8F0023C6E88F3F87F307
:103160001088F8BD5127002000ED00E0110100108B
:103170002DE9F04F80468B46174683B0EFF310835E
:1031800072B6DFF8D0A10093DAE8CF1F012300293F
:10319000FAD1CAE8413F0029F6D1BFF35F8F664EEE
:1031A00096F90050002DC0F2A080644C05EB450359
:1031B00004EB8300817908F11008317060499B00AD
:1031C0008968994651F828E00646AEEB04012F299C
:1031D0004FEA450231D95B4B9E4540F0A2805A4BE5
:1031E00009F10209A144043BA3EB0903C3F34A0319
:1031F0006FEAC3434FF421416FEAD343154424F8E7
:10320000251004EB85056B804BF60153AB80FF2343
:1032100046F0010EEF71C5F808B0AB71484B9B68E2
:1032200043F828E0BFF35F8F0023CAE88F3F009B7D
:1032300083F3108803B0BDE8F08F2EF0010191F800
:1032400007C0BC452BD84FF42146E6523E4B09F14E
:1032500002062644043B09F104099B1BA1440E1FEE
:10326000C771A6EB0906394FC6F34A063E4386806E
:10327000C3F34A03364E3B4343804AF6AA250B4626
:103280001B1B5B415D432D0DC0F808B0857140F0FC
:10329000010E0E60C2E7C079B8422BD9614691F9A0
:1032A000063003EB430004EB8000002B8446F2DA87
:1032B0004BF6015001930B1D043EF61AC6F34A0665
:1032C0006FEAC6466FEAD64602EB050CDFF880903F
:1032D000019B8D7104EB8C058E8044F82C90A880A6
:1032E000AB71EF71C5F808B098E701F075F896F981
:1032F00000505AE788880193400501F1040315D472
:103300004FEA605C6FF007000CF1020CA0EB0900C3
:1033100003EB4C0C001B6044C0F34A0040F46040D7
:10332000CAE7019201F058F8019A58E700F5FF103A
:1033300000F5FF501F30E3E733300020A0110020DC
:1033400000ED00E011010010D011002000E0FFFFAF
:103350000148804751270020F0B5EFF30585EDB215
:10336000EFF3108C72B62649D1E8CF2F0123002A43
:10337000FAD1C1E8423F002AF6D1BFF35F8F214E58
:1033800040F0010EB4684AF6AA2354F825701E4A8C
:103390000446A41A644163431B0D77455BB21BD0FE
:1033A00092F906409C421CD092F912409C4223D0D4
:1033B00092F91E409C4221D092F92A409C4208BFBB
:1033C00003240FD0114A0024157813708571C1E8C9
:1033D0008F4F8CF31088F0BDB2680D4C42F8254039
:1033E000F0E7002404EB440402EB8402FF24947110
:1033F0004BF601549480E5E70124F3E70224F1E75A
:103400005127002000ED00E0A01100203330002003
:103410001101001010B5074C82B0014605230022AF
:1034200000940548FFF792FD0028A8BFC0F13300C3
:1034300002B010BD3C91001037300020014B194400
:103440000160704748270020F8B5124D124EB54272
:103450001FD22C462368FF277BB1FFF7C5FD01462D
:103460002846FFF7EBFFA780BFF35F8F0834B44215
:103470000FD223682546002BEFD1FFF7B5FD01469B
:103480002846FFF7DBFF2771BFF35F8F0834B44294
:10349000EFD3F8BD681600207016002010B5044662
:1034A000FFF7A2FD01462046FFF7C8FFFF23237167
:1034B000BFF35F8F10BD00BF10B504460120FFF7BA
:1034C0009FFD034B18442060BFF35F8F10BD00BF0A
:1034D00048270020024B19440160BFF35F8F7047FB
:1034E000482700200D4B1A68EFF3108172B6D2E81E
:1034F000CFCF0120BCF1000FF9D1C2E84C0FBCF1D5
:10350000000FF4D1BFF35F8F00221B68C3E88F2F39
:1035100081F3108840BF0020002170471030002048
:103520002DE9F04F2DED028B85B0EFF30583DBB273
:10353000103B9A0818BF01224FF0010103F003006D
:10354000AD4B00EB82020CBFAC4FAD4F53F8226085
:1035500001FA00F207F541539FEDA58BB0460190AB
:1035600000925A6035E0B8F804301B0440F19280B4
:1035700098F80630002B40F0DF80B8F90820002AC8
:10358000C0F22581D8F8143002EB420203EBC202EC
:10359000D2E90245B5F1FF3F08BFB4F1FF3F0DD0BE
:1035A000019B07EB8301BB6A0A69D21AE31A9342B3
:1035B00003D33B6A009A134200D10C61384600F0F5
:1035C000B5FB201A65EB0105012875F1000380F2B7
:1035D000FE80B8F90840009B002CFB63C3DBD8F8E1
:1035E00014A004EB440B38460AEBCB05D5E9029650
:1035F00000F09CFB484561EB06010029B3DB002E7F
:10360000C0F2C3802B697F4A934200F0FD806A8834
:10361000B8F9080092B242EA004069699847024648
:103620000B4652EA030100F0B080002B80F2D580F7
:10363000B9EB020066EB0303C5E902033AF93B501C
:10364000002D90DBD8F814C005EB45010CEBC1014F
:103650008A68821ACA6863EB0202002A83DBA8F830
:10366000085007E09568451BD56863EB0505002DFC
:1036700008DB1146B1F9006006EB4602002E0CEBA8
:10368000C202EFDA2AF83B600C80B8F804301B0461
:103690003FF56EAFD8F81030EFF3108272B6D3E872
:1036A000CF0F01210028FAD1C3E8401F0028F6D12E
:1036B000BFF35F8F4FF6FF70B8F804900023D8F87F
:1036C00010100FFA89F9A8F80400C1E88F3F82F3BF
:1036D00010889945FFF64CAFBA46D8F8145008F157
:1036E000080B09EB490E05EBCE03D3E90267B8F9E5
:1036F0000830DC46002B05DA0FE035F9343084461B
:10370000002B0ADB03EB430405EBC400D0E90212F3
:10371000711A67EB0202002AEFDAACF8009035F973
:103720003E9025F83E30B9F1000FDADA98F806300D
:103730005746002B3FF421AF002388F80630B8F934
:10374000083008F1080C5E1C41D01A46D8F8144025
:1037500003E08446591C3FF412AF03EB430104EB32
:10376000C10045881E462D0434F93130F1D596420A
:1037700080ED028BEED0ACF80030B8F8082024F8C9
:1037800031203246A8F80860E4E73AF83B30A8F860
:103790000830D8F81030EFF3108272B6D3E8CF0FAC
:1037A00001210028FAD1C3E8401F0028F6D1BFF359
:1037B0005F8FB8F80230D8F810102AF83B30002399
:1037C000A8F80240C1E88F3F82F31088CBE640BFE3
:1037D00005B0BDEC028BBDE8F08F3846CDE9022381
:1037E00000F0A4FA029A039B801843EB010323E73D
:1037F000FFFFFFFFFFFFFFFFE82F002000000B404F
:1038000000800B40213500106B6918461A6902933D
:1038100090470028B9D0029BD3E9002301E700BFFD
:103820002DE9F84F364C25692DB1BDE8F84F0A2136
:103830003448FFF703BEDFF8E48003260321404647
:1038400000F062FAC4F80C80FFF7CEFB4FF0504C4A
:103850002D4B26701844DCF800300F21637063692B
:1038600061801D834FF00405A3F878504FF00505E3
:10387000A3F890504FF00605A3F8A8504FF00705A5
:103880000E21206108274FF6FF724FF00A0EA3F8B1
:10389000C0504FF001094FF00C0C4FF0020B4FF0ED
:1038A000090A0D204FF00B05A3F868111749A280F3
:1038B000A3F808E1A160A3F848B0A3F8F0A0A3F82A
:1038C0002051A3F838C1A3F85001A3F83090A3F811
:1038D0006060A3F8D8701A800D4B3046C8F820708D
:1038E0000C49DC60FFF714FC49463046FFF7CCFB7F
:1038F000094B0A211F600348BDE8F84FFFF79EBD42
:10390000E81100201030002048270020FFFF1000A1
:10391000E82F00202135001040200B4000000B4014
:1039200000487047E81100202DE9F0419DF8205033
:10393000044617461E4635B900F000FA874266EB8A
:103940000101002957DB2169EFF3108072B6D1E83D
:10395000CF2F0123002AFAD1C1E8423F002AF6D135
:10396000BFF35F8FB4F90220D4F814C002EB420118
:10397000002A4FEAC10E0CEBC10102DB3CF80E300D
:1039800063804FF000082369C3E88F8F80F31088AD
:10399000424533DB4888069B0130C0F30E00012806
:1039A00038BF01200B61079B48804B61C1E902765B
:1039B00040EA02402369EFF3108172B6D3E8CF6F7B
:1039C0000125002EFAD1C3E8465F002EF6D1BFF3E1
:1039D0005F8FA3882CF80E30A2802369C3E88F8FF5
:1039E00081F310880122E368217803F501538A40AE
:1039F0005A60BDE8F0812846BDE8F0814FF0FF3005
:103A0000F7E700BF0146F0B50069EFF3108772B623
:103A1000D0E8CF5F0124002DFAD1C0E8454F002D3A
:103A2000F6D1BFF35F8FB1F902E04C690EEB4E0C9B
:103A30004FEACC06BEF1000FA8BFA05B4FF0000517
:103A4000A8BF488004EBCC0C0869C0E88F5F87F3FF
:103A50001088AE4535DBBCF80200CCE9022301300A
:103A6000C0F30E00012838BF0120059BACF802000E
:103A7000CCF81030069B40EA0E40CCF814300B69AD
:103A8000EFF3108272B6D3E8CFCF0127BCF1000F5D
:103A9000F9D1C3E84C7FBCF1000FF4D1BFF35F8FC5
:103AA0008B88A353A1F804E00B69C3E88F5F82F30E
:103AB00010880122CB68097803F501538A405A60C7
:103AC000F0BD4FF0FF30F0BD4289B2EB214F38DD41
:103AD00042690B1403EB430310B502EBC303046903
:103AE000EFF3108C72B6D4E8CFEF0122BEF1000FD5
:103AF000F9D1C4E84E2FBEF1000FF4D1BFF35F8FB0
:103B00005A8889B292B28A4207D000230269C2E879
:103B10008F3F8CF31088184610BD42F400425A8043
:103B20000123002201698371C1E88F2F8CF3108873
:103B3000C268017802F5015203FA01F1184651609A
:103B400010BD0020704700BF407870472DE9F0415C
:103B5000861F41F1FF35B04271EB050338BF0026E7
:103B600082B038BF354604460F4600F0E7F8301AF9
:103B700065EB0101012871F1000306DA20463946A0
:103B800002B0BDE8F04100F0E3B800F0D7F886429B
:103B900065EB010100290ADB0021174B3246009337
:103BA00016482B460191FFF72DFF0028E6DB4FF06A
:103BB000000C1348134A436A9D4204D8816AB142FB
:103BC000DCD29D42DAD11368EFF3108172B6D3E8EC
:103BD000CF8F5FF0010EB8F1000FF8D1C3E848EFC6
:103BE000B8F1000FF3D1BFF35F8F1368C3E88FCF35
:103BF00081F3108820BFDEE7E5340010E8110020D3
:103C000000000B401030002010B5044600F096F87C
:103C10004FF47A73E4FB0301BDE810400029BCBFF8
:103C20004FF0FF306FF00041FFF790BF2DE9F043F8
:103C300007460E4683B0EFF30584E4B274B12F4B10
:103C4000586A884203D2002003B0BDE8F0839B6A23
:103C5000BB4248D3012003B0BDE8F083284DD5F81E
:103C60000C9095F80080484600F060F808F10408D0
:103C700059F828301B1A381A66EB0101984271F185
:103C800000030DDB20BF1D4B586A8642DBD89B6AC0
:103C9000BB42DFD2301A18BF012003B0BDE8F08369
:103CA00000F04CF8874266EB0101002913DB154B4D
:103CB0002846CDE900343A463346FFF7A3FE011EFD
:103CC00009DD0E4B5A6A964215D89B6ABB4210D347
:103CD0000B48FFF7F9FE094B586A8642B3D89B6A36
:103CE000BB42B7D2D6E7401A18BF012003B0BDE8E7
:103CF000F0839642ECD120BFEAE700BF00000B4002
:103D0000E8110020E534001010B4054B054C064ABC
:103D1000A04214BF1846581C5DF8044BFFF7E8B8E2
:103D2000742B002000800B4058910010416A0B4614
:103D3000826A416A8B42FAD110467047034B596A36
:103D40000A46986A596A9142FAD1704700000B40BE
:103D5000074A536A9942FCD8994207D1044B02E0C2
:103D60005A6A914202D19A6A8242F9D3704700BFDF
:103D700000000B4000EB400C4FEA8C0C0CF1804C27
:103D80000CF5803C70B5DCF80440A0F1040EB4F5ED
:103D9000803F38BF4FF480345FFA8EFE38BFCCF8D6
:103DA0000440BEF1010F29D94FF40066244D0CF5F3
:103DB0004054266055F82060BEB9DCF800400CF590
:103DC000805684EA421202F0E002BEF1010F326036
:103DD00028D94FF4006145F820304FF480330CF5BA
:103DE00000521160CCF8043070BD6C69B4FBF6F47D
:103DF000013404EB4404033CFDD2DEE70129D3D1B6
:103E000003250CF540542560DCF80840E407FBD599
:103E1000DCF800400CF5805684EA421202F0E00221
:103E2000074D32600122DCF800404C4004F00304EE
:103E3000346002FA01F1DCF808200A42FBD0C8E73E
:103E4000782B0020014B53F820007047782B00207E
:103E50000D2824D00F280CD0152820D0172808D0E2
:103E600018281FD0192814BF4FF0000C4FF0030C76
:103E700001E04FF0010C0CEB4C0C4FEA8C0C4901AB
:103E80000CF1804C0CF5803C41F4006143EA0243A4
:103E9000CCF800100921CCF80430FEF79BBF4FF09E
:103EA000000CE8E74FF0020CE5E700BF5B4B2DE9A3
:103EB000F04F1D6C9246B5F5803F3CBF4FF4803209
:103EC0001A64032383460C46DFF88091534A83B07B
:103ED000C9F80030536CDE07FCD5D36BDFF8708176
:103EE00083F0200303F0E003C8F80030D36B4B4E9F
:103EF00083F0010303F00303C8F80030736C9D07DF
:103F0000FCD54FF40063464F464D3B604FF4803381
:103F10003364454B5A464548CDF800A001216B61FA
:103F2000234600F051F9736B4FF40062B3F5803F04
:103F300038BF4FF480330AFB04F438BF73633C4B43
:103F4000BBFBF4F01A602A693AB16B69B3FBF2F378
:103F5000013303EB4303033BFDD2304B35491A6B6E
:103F600002F0E0020A601A6B82F0020202F0030221
:103F70000A609A6B5407FCD54FF400644FF480320A
:103F80002D490C602D495A632961196C914238BF43
:103F90001A640323214AC9F80030536CD907FCD5B1
:103FA000D36B03F0E003C8F80030D36B1B4A83F0F7
:103FB000010303F00303C8F80030536C9B07FCD5E2
:103FC0004FF480334FF40061686139601364D16C41
:103FD00099424FF4006138BFD364AA69184B196045
:103FE0003AB16B69B3FBF2F3013303EB4303033BD9
:103FF000FDD24FF400604FF48031084A114C936CAD
:1040000083F0400303F0E00323600F4B064C18607D
:10401000AC61D16403B0BDE8F08F00BF0000014087
:104020003C200140782B0020006CDC0200000540A1
:10403000303001403010014030200140001BB700FB
:104040004830014048100140482001403C300140C8
:104050003C1001402DE9F04F85B0CDE90112564CDE
:10406000DFF860A10393554B04EB0A029C4200F277
:104070009280072303FB03F7B2FBF7FE70454FF076
:10408000010C4FF002094FF003064FF004054FF00A
:1040900005014FF000084BD0B3F1010E7BD003FBBC
:1040A0000EF7B2FBF7FB584552D071B301FB03F793
:1040B000B2FBF7FB584550D03DB305FB03F7B2FB0D
:1040C000F7FB58454FD006B306FB03F7B2FBF7FBEF
:1040D00058454ED0B9F1000F17D003FB09F7B2FBDA
:1040E000F7FB58454BD0BCF1000F0ED00CFB03F78B
:1040F000B2FBF7FB584548D0B8F1000F05D003FBE1
:1041000008F7B2FBF7FB83454FD0734603FB03F779
:10411000B2FBF7FE704508F1FF3801F1FF3105F100
:10412000FF3506F1FF3609F1FF390CF1FF3CB3D141
:1041300007FB1027002FAFD19E46012001990A608E
:10414000029A1360039BC3F800E005B0BDE8F08F4E
:1041500007FB1027002FA8D1EFE707FB1027002F40
:10416000AAD18E46E9E707FB1027002FABD1AE4658
:10417000E3E707FB1027002FACD1B646DDE707FBCE
:104180001027002FAFD1CE46D7E707FB1027002F0F
:10419000B2D1E646D1E70A4BA4F53704A4F5D854CA
:1041A0009C427FF460AF0020CFE707FB1027002F71
:1041B000ABD1C646C1E700BF808D76B780F8A93283
:1041C000807D06DE8017B42C70B4039C0568240340
:1041D00044EA03431B4C002DB4FBF1F4B2FBF4F2B0
:1041E0001FDB194D194CA8420CBF4FF400454FF48A
:1041F0008045174E256004F580542560B46835EA83
:104200000404FBD1212500F5405404340160826090
:1042100025600268002AFCDA0822C360226070BCB4
:104220007047046804F03F048C42DAD18468C4F318
:104230000B049442D5D1C46804F4EE249C42D0D13E
:10424000EDE700BF001BB7000080054000200240E2
:104250000000024030B44FF080441D4B1C60E0B1C0
:104260001C4CA3F54053DC611B4C40F00100444062
:104270001C62596298624FF080454FF0E061144B28
:104280001648174C1D60846019604AB930BC4FF065
:104290000042A3F580531A607047124BD861EAE7D9
:1042A0004FF47A7303FB02F2B2F1807F09D20E4B16
:1042B0001A604FF0804130BC0A480C4B42601960D4
:1042C00070476FF07F4308491A460B60F1E700BF63
:1042D00000B00D40D3C007B02D3FF84F00A0014003
:1042E000F3FFFF0100800D40D82F002000A00D40FB
:1042F000012300EB4000800000F1804000F58410B5
:1043000041600360704700BF10B5002482B00B46C7
:10431000E48A002141E800F1CDE900034B0254BFDB
:104320001021042144F25220A047DDE900238646F3
:104330000A214FF48170F44602B0BDE81040604796
:104340000023DB8A002242E800F2520201D410214D
:1043500018470421184700BF08B50B46011E02DBB1
:1043600022B143F030031846FFF7CEFF43F020039D
:10437000F9E700BF034AD2F82838002BFBD0BFF37F
:104380005F8F704700000E400021044B044ABFF3CA
:104390005F8F43F8041B9342F9D170470C080E401D
:1043A0002C080E4010B44FF48D704FF42A64064A66
:1043B000064B07491460D06019605368002BFCDA83
:1043C0005DF8044B704700BF0080044000A004402B
:1043D00000B0FA00704700BF08B50148FEF754FD71
:1043E0007C91001038B5054C054DAC4204D254F810
:1043F000043B9847AC42FAD338BD00BFF88F001099
:104400003890001010B40748074C084B084A094977
:1044100004601A608B6832EA0303FBD15DF8044B39
:10442000704700BF002002407F3BEFEF00300240AA
:10443000F6FFF30300000240044BDB6CB3F5004FC2
:1044400003D14FF48022024BDA6470470000115010
:10445000002011504FF0E022044BD2F8881D0B438E
:10446000C2F8883D10EE3004704700BF03033000EF
:104470006FF06041044B054A19609368DB4333F0E9
:104480006043FAD1704700BF003002400000024094
:1044900010B545F25320FFF753FFBDE81040034627
:1044A0000420184710B545F25320FFF749FFBDE837
:1044B0001040034601201847FEF7BABD70B52E49DB
:1044C0002E4C2F4E641AA510442D2A4628BF442294
:1044D0003046920004F036FCB4F5867F47D805F1EB
:1044E000010CBCF1440FC5F143013444C5F1440053
:1044F00088BF012005296346224AC4F3800418D9E5
:10450000BCF1440F15D8ACB346F82520001B2C4451
:1045100006EB8403410803EBC101C3E90022083321
:104520009942FAD120F0010398420CEB03051ED00A
:104530006B1C442B46F8252019D0422D46F8232029
:1045400005F1020313D0412D46F8232005F10303A2
:104550000DD0402D46F8232005F1040307D03F2D50
:1045600046F8232005F1050301D046F82320064B29
:104570009E6070BDAC46C9E700000010100100103D
:10458000000000201101001000ED00E00023F0B554
:104590002B4C83B0C4F88430FFF704FF0122294B71
:1045A000DA63636C012BFCD10321264A244B11638F
:1045B0009D6B012DFCD1052302271E4600242946B0
:1045C000214A22480097FFF7FFFD29463346204A3B
:1045D00020480096FFF7F8FD3946224604201E4B7E
:1045E000FFF7C8FB2946224630461C4BFFF7C2FBAB
:1045F0002246082021461A4BFFF7BCFB2246092021
:104600002146174BFFF7B6FB224606202146134BE7
:10461000FFF7B0FB114B224607202146FFF7AAFB0C
:104620000420FFF70FFC0F4DA5FB0035AD0CE0B2E9
:1046300029460134FFF75CFE062CF8D103B0F0BD2B
:104640000000014000300140002F68590000054083
:10465000008C864700800540001BB70080D1F00821
:10466000006CDC0283DE1B4386B003B451FC0804FB
:10467000CDE9020151FC0904CDE9040151EC0A0421
:10468000CDE9060103BCF047BDE800504EEC00C484
:10469000BDE800504EEC01C4BDE800504EEC02C431
:1046A00000BD000000B5FFF7DFFF02E010FE30F4B0
:1046B000F8D441EC100443EC112400EE010410EE98
:1046C000010480EE200451EC1004704700B5FFF7A0
:1046D000CBFF02E010FE30F4F8D441EC100443ECC0
:1046E000112400EE010410EE210480EE200451ECB0
:1046F0003004704700B5FFF7B7FF02E010FE30F45A
:10470000F8D410B541EC100443EC112451EC04042E
:1047100053EC0524A0FB024C5FF0000EE0FB03CE3F
:10472000E1FB02CE4CEC20440024E1FB03E444EC2A
:1047300030E480EE200451EC5004BDE81040704796
:1047400000B5FFF791FF02E010FE30F4F8D441EC21
:10475000100443EC112451EC2104A0FB01126FEA78
:10476000820252FB100052FB12F252FB1000A0EB2F
:10477000D07C53EC04245CFB13F153EC1524A1FB17
:10478000022001FB030053EC4424A2EB000050FB89
:104790001CF24FEA111312EB017043EBE27140EA95
:1047A000515020EA915020F0070053EC7524A0FBF3
:1047B000023C53EC752400FB03CC01FB02CC53EC10
:1047C0000424ACEB824C40EA5C70A0F1010041ECA7
:1047D000400480EE200451EC7004704700B5FFF7F0
:1047E00043FF02E010FE30F4F8D440EC700400EE19
:1047F000010410EE210480EE200451EC30047047D7
:1048000000B5FFF731FF02E010FE30F4F8D440ECC1
:10481000600400EE010410EE210480EE200451EC4F
:104820003004704700B5FFF71FFF02E010FE30F4C0
:10483000F8D441EC800400EE010410EE010480EE97
:10484000400410EE1304704700B5FFF70DFF02E0BF
:1048500010FE30F4F8D441EC800400EE010410EEB8
:10486000010480EE400410EE3304704700B5FFF7FA
:10487000FBFE02E010FE30F4F8D441EC100443ECEF
:10488000112400EE010410EE3004C0F300707047F4
:1048900000B5FFF7E9FE02E010FE30F4F8D443EC77
:1048A000102441EC110400EE010410EE30F48CBF32
:1048B00001200020704700BF00B5FFF7D5FE02E0E1
:1048C00010FE30F4F8D443EC102441EC110400EE57
:1048D000010410EE30F42CBF01200020704700BF0F
:1048E00000B5FFF7C1FE02E010FE30F4F8D441EC51
:1048F000100443EC112400EE010410EE30F42CBF40
:1049000001200020704700BF00B5FFF7ADFE02E0B8
:1049100010FE30F4F8D441EC100443EC112400EE06
:10492000010410EE30F48CBF01200020704700BF5E
:10493000C11545D4852932DA012262F3DF507E3970
:104940002AD400FA01F041F69553C5F6554380FB91
:1049500003012BA292EC034A820D61F39A2200EE2E
:10496000102ABBEEC00A60EE000AC1F3444220EEFA
:10497000042A26A320EE201A53F8222000EEA42AAF
:10498000891501EE052A02EBC15200EE102A00EE55
:10499000020A10EE100A70474942C840D3E747F2B6
:1049A0001822C4F2B1229042C6D3B0F1FF4F02D90F
:1049B00050F48000704740F20000C7F680707047E6
:1049C00011F17B0F0CDA012262F3DF50823105D541
:1049D0004942C84040F100004042B4E78840FBE74C
:1049E0004AF64F42CCF2AE229042ECD910F5000FBD
:1049F00002D950F4800070474FF00000704700BFAC
:104A00001872313FF0FD753E4758633D0000803F0E
:104A100087CD823FC3AA853F0F98883FC2958B3FC1
:104A20003AA48E3FD3C3913FF0F4943FF037983FC0
:104A30003A8D9B3F32F59E3F4370A23FD7FEA53F84
:104A40005BA1A93F3F58AD3FF623B13FF304B53F0B
:104A5000AFFBB83FA408BD3F4D2CC13F2A67C53FFF
:104A6000BEB9C93F8C24CE3F1EA8D23FFD44D73FDC
:104A7000B8FBDB3FDFCCE03F07B9E53FC7C0EA3F0B
:104A8000BAE4EF3F7D25F53FB383FA3F704700BF9F
:104A90002DE9F84F9A460D9B17469A0706468B4616
:104AA000DDF8288011D1DDE90B3293420DD2134697
:104AB0003C460B9A9D1A3D442246534659462020B7
:104AC0000134B047AC42F7D100E03D460B9B73B1D7
:104AD00008EB030404EB0509A9EB040214F8010D2B
:104AE00053465946B0474445F6D10B9B1D440D9B98
:104AF0009B070ED50C9BEF1BBB420AD91C462A46CE
:104B00005346594620200137B047BC4205F1010504
:104B1000F5D82846BDE8F88F2DE9F04F0F9EDDF857
:104B200024E016F0020F0A9C9DF82C900E9DDDE902
:104B30000C872CD1002D74D1BC4206F0010B80F003
:104B4000CB801F2C88BF202400F2C68004F1FF3CDC
:104B50004FF0300AF44401E0202C04D00134A74285
:104B60000CF801AFF8D8BBF1000F10D0A5420ED958
:104B7000202C2DD004F1FF3C4FF0300AF44401E02A
:104B8000202C25D00134AC420CF801AFF8D116F03E
:104B9000100F38D016F4806F26D10CBBB8F1100F6F
:104BA0007FD0B8F1020F00F0928030248EF80040E0
:104BB0000124B9F1000F2BD02D270EF80470013419
:104BC000CDE90B56CDE909E4BDE8F04FFFF760BF32
:104BD00016F0100F4FF02004F2D016F4806F03D1BE
:104BE000A74249D0A54247D0B8F1100F4ED0B8F136
:104BF000020F39D0202CE3D04FF0300C0EEB04071D
:104C000087F800C00134202CDAD0B9F1000FD3D1DD
:104C100077071DD43707D3D520270EF80470013449
:104C2000CEE716F0010B0DD0B9F1000F22D116F02E
:104C30000C0F1FD1BC4299D21F2C87D9202DC7D869
:104C40002024A4E7BC42A2D21F2C7FF67FAFF7E757
:104C50002B270EF804700134CDE90B56CDE909E499
:104C6000BDE8F04FFFF714BF202CA9D00EEB0407CE
:104C7000013440E0013DDDE7671E8FD0B8F1100F31
:104C80002FD0B8F1020F35D03C46B5E7B7060FD4A8
:104C9000202C95D00EEB040C013478278CF8007092
:104CA000A8E7B4060ED478248EF800400124A3E7C8
:104CB000202C85D04FF0580C0EEB040787F800C06D
:104CC000013497E758248EF80040012494E76224C9
:104CD0008EF8004001248FE7BBF1000F08BF0025CC
:104CE00055E716F0200FA4F10204E3D10EEB040CFB
:104CF0003C46D2E777444FF0620C87F800C079E772
:104D000000B9704701F060BA10B1D1E9003118471D
:104D1000704700BF000000002DE9F04F2DED048B1F
:104D20009BB02A9CDDE9288909942B9C83461D466B
:104D30000D940C920C4642464B4640464946DDF8DF
:104D4000B0A0FFF797FD002840F0D68040464946C6
:104D50004FF0FF32744BFFF7DBFD002840F0CC80B2
:104D6000404649464FF0FF326FF48013FFF794FD41
:104D7000002840F0C1804046494600220023FFF74A
:104D80008BFD002840F0C181CDE90A89DDE90A23C5
:104D90001F461AF4806316461193099B08BF062329
:104DA000099356EA070340F0C3801AF4006E00F03E
:104DB000A4819FED5B7B00238DED0E7B1093099BFF
:104DC000109A00269342D2BF0023A3EB020E0EF1ED
:104DD000FF3309934AF4806A10960D9BB34294BF47
:104DE00000279F1B1AF00203119302D0002E18BF58
:104DF0000027109B3BB1DDE90A01DDE90E23FFF737
:104E0000A3FCCDE90A014046494600220023FFF7F2
:104E100043FD30B1DDE90A01024601F10043CDE96D
:104E20000A239DED0A7B099B8DED007B02932AF4FA
:104E30000063049321462B4658460C9A039700F0D2
:104E40009BF98046002E51D01AF0200F424614BF25
:104E5000452065202B462146D847109A0DF1480C75
:104E600082EAE273A3EBE2734FEAD27E0027624646
:104E70001846DFF8B89008F1010806F1FF3A01E0A2
:104E8000202F0FD00646A9FB0031C90801EB810392
:104E9000A0EB43033033092E084607F1010702F85F
:104EA000013BEDD80523002006930A234246CDE9B5
:104EB000033021462B465846CDE9017ECDF814A09B
:104EC000CDF800C0FFF728FE119B804673B10C9B04
:104ED0000D9FC61AB74209D942462B4621462020CB
:104EE0000136D847B74208F10108F5D840461BB053
:104EF000BDEC048BBDE8F08F0D9B21462B935846EB
:104F00002B46099C0C9ACDE92889CDF8B0A02A94AB
:104F10001BB0BDEC048BBDE8F04F00F02DB900BF15
:104F20000000000000000000FFFFEF7FCDCCCCCCE4
:104F3000C7F30A50A0F2FF30FFF754FC8AA3D3E96D
:104F40000023FFF7DBFB8AA3D3E90023FFF7AEFBC7
:104F5000C7F3130341EC180B43F07F513046002296
:104F60007B4B41F44011FFF7B5FB6BA3D3E9002362
:104F7000FFF7C4FB02460B4651EC180BFFF796FBFC
:104F8000FFF754FC1090FFF72DFC65A3D3E9002335
:104F900006460F46FFF7B2FB00226E4BFFF786FB7B
:104FA000FFF744FC0346394630460E935EA3D3E92F
:104FB0000023FFF7A3FB06460E980F46FFF712FCEF
:104FC0005BA3D3E90023FFF799FB02460B4630466B
:104FD0003946FFF77FFB02460B4606460F46FFF7B2
:104FE0008DFB324641EC180B3B4630463946FFF705
:104FF0005DFB002241EC190B574B51EC180BFFF7EE
:10500000A3FB0022554BFFF751FB02460B4651EC28
:10501000180BFFF799FB0022514BFFF747FB0246A5
:105020000B4651EC180BFFF78FFB32463B4606460A
:105030000F4600204FF08041FFF74CFB02460B4625
:1050400030463946FFF732FB02460B4651EC190B4E
:10505000FFF77AFB0022434BFFF728FB0E9B002251
:1050600003F2FF363305FFF749FB06460F46DDE93D
:105070000A0132463B46CDE90E67FFF70DFC60BBE7
:1050800031463A46109B6333C72B34BF04260526AE
:105090001AF4006F3FF4A1AE51EA02033FF48FAE61
:1050A000DDE90A0124A3D3E90023FFF71DFC48B181
:1050B000DDE90A0122A3D3E90023FFF7EDFB002875
:1050C0007FF47DAE099B002B3FF487AE119A002A36
:1050D0003FF483AE013B09937FE6109B0022013B26
:1050E000109330461D4B3946FFF72EFB0B46024608
:1050F0000146CDE90E231A46C4E79FED137B042633
:105100008DED0E7BCDF840E067E609F10043CDF868
:1051100028800B933AE600BF61436F63A787D23FB5
:1051200071A379094F930A401655B5BBB16B024084
:10513000EF39FAFE422EE63F2D431CEBE2361A3FD2
:105140000000000080842E410000000000000000EC
:105150000000F83F0000E03F00002C400000244029
:10516000000018400000F03FFB799F501344D33FEC
:10517000B3C8608B288AC63F2DE9F04F2DED028B16
:1051800095B0DDE922450695249DDDE92067CDE94E
:105190000701CDE90923304632463B46394605959D
:1051A000FFF768FB002840F0C481304639464FF0D5
:1051B000FF326FF48013FFF76FFB002840F00D8182
:1051C000304639464FF0FF32BF4BFFF7A1FB0028B6
:1051D00040F0DD80B8A3D3E9002330463946FFF71D
:1051E00097FB002840F0C180B5A3D3E900233046E7
:1051F0003946FFF751FB002840F0B780304639466A
:1052000000220023FFF748FB002840F0DA802B46FD
:105210000B9013F4806F08BF06243021A2460CAB1C
:10522000A4F1200206E00AF1FF3A524503F8011BFF
:1052300000F03181BAF1090FA4EB0A05F3D8394621
:105240003046FFF7F3FAA14B044603EBCA0393ED94
:10525000008BFFF7C7FA02460B4630463946FFF788
:1052600039FA53EC182BFFF749FA89468046FFF7C5
:10527000EFFA8346FFF7C8FA02460B464046494616
:10528000FFF728FA0022924B80468946FFF740FB41
:10529000002800F0F1800BF1010B5846FFF7B4FA3B
:1052A00002460B4651EC180BFFF70AFB10B14FF00A
:1052B000000B0134BAF1000F40F09A802046FFF74E
:1052C00091FA02460B4630463946FFF703FA0022B0
:1052D0007F4B06460F46FFF7DFFA40B930463946A6
:1052E00000227B4BFFF714FB002800F016816A1E9A
:1052F0000CAB78491A44202D4FEAE47300F09380F8
:1053000081FB0460C3EBA00303EB8300A4EB400428
:1053100004F1300001351C4602F8010F002BEAD1E0
:10532000059B03F00303012B00F08380202D0AD09E
:105330000B9B002B00F0B1802D2205F150036B4434
:1053400003F8202C0135059B0CAC0393069B0094BD
:10535000CDE90153DDE90701DDE90923FFF798FBFA
:1053600015B0BDEC028BBDE8F08F059BCDE9206741
:10537000DDE907012493069B22942393DDE90923A9
:1053800015B0BDEC028BBDE8F04FFFF7C5BC05F0D2
:1053900004042395504D002C504C18BF2C46DDE9D9
:1053A000070120940CBF03240424069B2293DDE90B
:1053B0000923219415B0BDEC028BBDE8F04FFFF737
:1053C00067BB01213B4632460B9100200021FFF7CD
:1053D00081F92B4606460F461BE7069C239522942F
:1053E0000424DDE90923DDE907013D4D2095E0E7CF
:1053F000681E0CAB3B4F18440FE0A7FB0B32D208E2
:1054000002EB8203ABEB43033033BBF1090F00F82F
:10541000013F69D9B24693460D46202D0AF1FF3669
:1054200005F10101E9D1059B202503F00303012BC0
:1054300089D1069B002B3FF479AF0B9B1BB9059BD1
:1054400013F00C0F02D0069B013B0693069BAB4268
:105450007FF66CAF202D0DD030226B1E0DEB0201BC
:105460000B44069901358D4203F8012F3FF45EAFDE
:10547000202DF7D1202566E7404649460022144BEF
:10548000FFF70AFA00287FF415AFBBF1000F4BD1EC
:105490000BF1010B0EE72025D1E6059B5A0741D4FD
:1054A0001B077FF550AF202205F1300313446B44F6
:1054B00003F8202C013546E70000000065CDCD4102
:1054C0000000000065CDCDC1FFFFEF7F40920010CE
:1054D0000000E03F67666666289200102492001084
:1054E00034920010CDCCCCCC20299CD05EB30CAB38
:1054F0005A1930200D460135202D02F8010F92D0A7
:10550000EB430B4413EB0A0FF5D12E2205F15003A8
:105510006B4403F8202C0135E9E6E1077FF5E7AE9F
:105520000134E4E62B2208E71BF0010F3FF4C2AE82
:10553000AEE7069C23952294044D0324DDE909235C
:10554000DDE9070152E70D46DFE700BF30920010AA
:105550002DE9F04F9BB0249C844D0994844C0F1E80
:1055600018BF834625601878824D904608BFAB4629
:10557000002800F0C4821C464FF0000A0AE05246A0
:1055800043463946D8470AF1010A013420780028F9
:1055900000F0C9802528F2D10021631C1C4613F8B5
:1055A000010BA0F12002102A0AD8DFE802F03C0922
:1055B00009390909090909090936093309093000B6
:1055C000A0F13003092B40F290802A2800F0B98026
:1055D00000252E2800F0988000230A93A0F168038C
:1055E000122B27D8DFE813F01F0126001A0126002E
:1055F0002701260026002600260026002600260079
:10560000220026002600260026002600220041F067
:105610000101C3E741F00201C0E741F00401BDE729
:1056200041F01001BAE741F00801B7E7607841F4B2
:1056300080710134A0F12503532B00F28E80DFE846
:1056400013F01C018C008C008C008C008C008C00F2
:105650008C008C008C008C008C008C008C008C00EA
:105660008C008C008C008C008C008C008C008C00DA
:105670008C008C008C008C008C008C008C008C00CA
:105680008C00C5010201C5018C008C008C008C00CF
:105690008C008C008C008C008C008C008C008C00AA
:1056A0008C008C008C008C009B008C008C008C008B
:1056B0008C008C008C008C008C008C009B008E0178
:1056C0009B00C5010201C5018C009B008C008C0071
:1056D0008C008C008C009B006E018C008C002601DD
:1056E0008C009B008C008C009B00002505EB850541
:1056F00000EB450514F8010F303DA0F13003092BF4
:10570000F4D92E287FF468AF607841F48061A0F16D
:105710003003092B04F1010240F23F812A2800F0F6
:105720004B81144658E75446D04501D808F1FF3A5A
:105730004346524639460020D84720461BB0BDE8B4
:10574000F08F099B607853F8045B0134002DBCBFD7
:1057500041F002016D4209933BE752464346394608
:1057600001340AF1010AD84710E700BF5155001073
:10577000D42F00208D4A0010782800F07A81582814
:1057800000F0C0816F2800F00E82622800F06A836A
:1057900021F0100369284FF00A090B9340F00682AC
:1057A000490500F16D810B9B13F4007040F00882F5
:1057B00013F4807140F0E3825E06099A00F1498299
:1057C00013F0800F52F8043B00F097831BB209924C
:1057D00083EAE372A2EBE37292B2D80F0D90002B32
:1057E00040F065820B9820F0100340050B9340F1C8
:1057F0005E8212AB0C9352460B9BCDE905530A9B7C
:10580000CDE903930D9BCDE901130C9B0093434617
:1058100039465846FFF780F982467EE0607841F4C9
:105820000071013406E76078682800F0638141F078
:1058300080010134FEE660786C2800F0568141F466
:1058400080710134F6E60A9B462808BF41F020012A
:105850000293099BCDE90351073323F00705B5EC0B
:10586000027B52464346394658468DED007B0995EA
:10587000FFF782FC0134824688E60AF101005246B5
:1058800043468246394625200134D8477EE6099BA7
:1058900053F8046B0D930A9B3078002B00F0D880EE
:1058A000002800F032835A1E0132B146324401E032
:1058B000914503D019F8013F002BF9D1A9EB06035C
:1058C000099311F480630B9305D0DDE9093293420B
:1058D00028BF1346099311F002030C9300F049818D
:1058E000002800F034810B9B002B00F0B7800A9B4E
:1058F00052465344994608E043463946D84716F87D
:10590000010F0AF1010A10B15246D145F4D10C9BA6
:10591000002B40F01C810D9B0993013436E6099859
:1059200050F8043B002B74D041F0210512AA164612
:1059300000210C9202E0202974D0134603F00F0CD2
:105940006246BCF1090F94BF303237320F2B06F894
:10595000012B01F101014FEA1312ECD862E08B0731
:1059600040F1DA80DDF82490524659F8040B4346A2
:105970003946C0B2D847012D0AF1010688BFAA44B2
:1059800040F2918132464346394620200136D847BD
:105990005645F7D1CDF82490BFE7002303EB8303EE
:1059A00000EB430312F8010F303BA0F13004092C47
:1059B000F4D914460A9311E6099BA07853F8042BF6
:1059C0000234099322EAE2730A9307E600F0DF0348
:1059D000472B08BF00F0FD000A9B08BF41F400619F
:1059E000452808BF41F020010293099BCDE90351EE
:1059F000073323F00705B5EC027B52464346394690
:105A000058468DED007B0995FFF786F901348246F3
:105A1000BCE521F010054E0545F0210586D5194657
:105A200012AB0C930A9B524604930C9B019100937A
:105A3000082305931023039300230990029339460A
:105A4000434658460695FFF767F8013482469DE5C0
:105A50006FF0010200287FF427AF31E7524643463A
:105A60003946D84716F8010F0AF1010A0028F5D186
:105A70004DE74FF0100921F00C0349050B9303D5B6
:105A80000B9B23F001030B9369283FF48CAE642831
:105A90003FF489AE0B9B13F4007040F0528113F475
:105AA000807140F0C6815E0640F1F080099B53F89A
:105AB000042B0993D2B2002A40F01E810B9820F0EB
:105AC000100340050B9340F11781114612AB0C9364
:105AD0000B9B0191CDE905530A9BCDE903935246F7
